{
  "address": "0x5FbDB2315678afecb367f032d93F642f64180aa3",
  "abi": [
    {
      "anonymous": false,
      "inputs": [
        {
          "indexed": true,
          "internalType": "address",
          "name": "user",
          "type": "address"
        },
        {
          "indexed": false,
          "internalType": "uint256",
          "name": "analysisType",
          "type": "uint256"
        }
      ],
      "name": "AnalysisPerformed",
      "type": "event"
    },
    {
      "anonymous": false,
      "inputs": [
        {
          "indexed": true,
          "internalType": "address",
          "name": "user",
          "type": "address"
        },
        {
          "indexed": false,
          "internalType": "uint256",
          "name": "recordCount",
          "type": "uint256"
        },
        {
          "indexed": false,
          "internalType": "uint256",
          "name": "startDayIndex",
          "type": "uint256"
        }
      ],
      "name": "BatchRecordsAdded",
      "type": "event"
    },
    {
      "anonymous": false,
      "inputs": [
        {
          "indexed": true,
          "internalType": "address",
          "name": "user",
          "type": "address"
        },
        {
          "indexed": false,
          "internalType": "uint256",
          "name": "dayIndex",
          "type": "uint256"
        },
        {
          "indexed": false,
          "internalType": "uint256",
          "name": "timestamp",
          "type": "uint256"
        }
      ],
      "name": "RecordAdded",
      "type": "event"
    },
    {
      "inputs": [
        {
          "internalType": "externalEuint32",
          "name": "encryptedMood",
          "type": "bytes32"
        },
        {
          "internalType": "externalEuint32",
          "name": "encryptedHabitCompletion",
          "type": "bytes32"
        },
        {
          "internalType": "bytes",
          "name": "moodProof",
          "type": "bytes"
        },
        {
          "internalType": "bytes",
          "name": "habitProof",
          "type": "bytes"
        }
      ],
      "name": "addDailyRecord",
      "outputs": [],
      "stateMutability": "nonpayable",
      "type": "function"
    },
    {
      "inputs": [
        {
          "internalType": "externalEuint32[]",
          "name": "encryptedMoods",
          "type": "bytes32[]"
        },
        {
          "internalType": "externalEuint32[]",
          "name": "encryptedHabits",
          "type": "bytes32[]"
        },
        {
          "internalType": "bytes[]",
          "name": "moodProofs",
          "type": "bytes[]"
        },
        {
          "internalType": "bytes[]",
          "name": "habitProofs",
          "type": "bytes[]"
        }
      ],
      "name": "batchAddDailyRecords",
      "outputs": [],
      "stateMutability": "nonpayable",
      "type": "function"
    },
    {
      "inputs": [
        {
          "internalType": "address",
          "name": "user",
          "type": "address"
        },
        {
          "internalType": "uint256",
          "name": "recordCount",
          "type": "uint256"
        }
      ],
      "name": "getAnalysisTotals",
      "outputs": [
        {
          "internalType": "euint32",
          "name": "encryptedTotalMood",
          "type": "bytes32"
        },
        {
          "internalType": "euint32",
          "name": "encryptedTotalHabits",
          "type": "bytes32"
        }
      ],
      "stateMutability": "nonpayable",
      "type": "function"
    },
    {
      "inputs": [
        {
          "internalType": "address",
          "name": "user",
          "type": "address"
        },
        {
          "internalType": "uint256",
          "name": "numDays",
          "type": "uint256"
        }
      ],
      "name": "getDailyAverages",
      "outputs": [
        {
          "internalType": "euint32",
          "name": "encryptedAverageMood",
          "type": "bytes32"
        },
        {
          "internalType": "euint32",
          "name": "encryptedAverageHabits",
          "type": "bytes32"
        }
      ],
      "stateMutability": "nonpayable",
      "type": "function"
    },
    {
      "inputs": [
        {
          "internalType": "address",
          "name": "user",
          "type": "address"
        }
      ],
      "name": "getDayCount",
      "outputs": [
        {
          "internalType": "uint256",
          "name": "count",
          "type": "uint256"
        }
      ],
      "stateMutability": "view",
      "type": "function"
    },
    {
      "inputs": [
        {
          "internalType": "address",
          "name": "user",
          "type": "address"
        },
        {
          "internalType": "uint256",
          "name": "dayIndex",
          "type": "uint256"
        }
      ],
      "name": "getEncryptedHabitCompletion",
      "outputs": [
        {
          "internalType": "euint32",
          "name": "encryptedHabitCompletion",
          "type": "bytes32"
        }
      ],
      "stateMutability": "view",
      "type": "function"
    },
    {
      "inputs": [
        {
          "internalType": "address",
          "name": "user",
          "type": "address"
        },
        {
          "internalType": "uint256",
          "name": "dayIndex",
          "type": "uint256"
        }
      ],
      "name": "getEncryptedMood",
      "outputs": [
        {
          "internalType": "euint32",
          "name": "encryptedMood",
          "type": "bytes32"
        }
      ],
      "stateMutability": "view",
      "type": "function"
    },
    {
      "inputs": [
        {
          "internalType": "address",
          "name": "user",
          "type": "address"
        },
        {
          "internalType": "uint256",
          "name": "recordCount",
          "type": "uint256"
        }
      ],
      "name": "getHabitCompletionTrend",
      "outputs": [
        {
          "internalType": "euint32",
          "name": "encryptedTrendSlope",
          "type": "bytes32"
        },
        {
          "internalType": "euint32",
          "name": "encryptedAverageCompletion",
          "type": "bytes32"
        }
      ],
      "stateMutability": "nonpayable",
      "type": "function"
    },
    {
      "inputs": [
        {
          "internalType": "address",
          "name": "user",
          "type": "address"
        },
        {
          "internalType": "uint256",
          "name": "recordCount",
          "type": "uint256"
        }
      ],
      "name": "getMoodHabitCorrelation",
      "outputs": [
        {
          "internalType": "euint32",
          "name": "encryptedMoodHabitProduct",
          "type": "bytes32"
        },
        {
          "internalType": "euint32",
          "name": "encryptedHabitSquared",
          "type": "bytes32"
        }
      ],
      "stateMutability": "nonpayable",
      "type": "function"
    },
    {
      "inputs": [
        {
          "internalType": "address",
          "name": "user",
          "type": "address"
        },
        {
          "internalType": "uint256",
          "name": "dayIndex",
          "type": "uint256"
        }
      ],
      "name": "getRecordTimestamp",
      "outputs": [
        {
          "internalType": "uint256",
          "name": "timestamp",
          "type": "uint256"
        }
      ],
      "stateMutability": "view",
      "type": "function"
    },
    {
      "inputs": [
        {
          "internalType": "address",
          "name": "user",
          "type": "address"
        }
      ],
      "name": "getRecordTimestampRange",
      "outputs": [
        {
          "internalType": "uint256",
          "name": "earliestTimestamp",
          "type": "uint256"
        },
        {
          "internalType": "uint256",
          "name": "latestTimestamp",
          "type": "uint256"
        }
      ],
      "stateMutability": "view",
      "type": "function"
    },
    {
      "inputs": [
        {
          "internalType": "address",
          "name": "user",
          "type": "address"
        },
        {
          "internalType": "uint256",
          "name": "startDay",
          "type": "uint256"
        },
        {
          "internalType": "uint256",
          "name": "endDay",
          "type": "uint256"
        }
      ],
      "name": "getRecordsInRange",
      "outputs": [
        {
          "internalType": "euint32[]",
          "name": "encryptedMoods",
          "type": "bytes32[]"
        },
        {
          "internalType": "euint32[]",
          "name": "encryptedHabits",
          "type": "bytes32[]"
        },
        {
          "internalType": "uint256[]",
          "name": "timestamps",
          "type": "uint256[]"
        }
      ],
      "stateMutability": "view",
      "type": "function"
    },
    {
      "inputs": [
        {
          "internalType": "address",
          "name": "user",
          "type": "address"
        },
        {
          "internalType": "uint256",
          "name": "recordCount",
          "type": "uint256"
        }
      ],
      "name": "getStressReductionTrend",
      "outputs": [
        {
          "internalType": "euint32",
          "name": "encryptedRecentMoodAverage",
          "type": "bytes32"
        },
        {
          "internalType": "euint32",
          "name": "encryptedEarlierMoodAverage",
          "type": "bytes32"
        }
      ],
      "stateMutability": "nonpayable",
      "type": "function"
    },
    {
      "inputs": [
        {
          "internalType": "address",
          "name": "user",
          "type": "address"
        }
      ],
      "name": "getUserStatistics",
      "outputs": [
        {
          "internalType": "uint256",
          "name": "totalRecords",
          "type": "uint256"
        },
        {
          "internalType": "uint256",
          "name": "averageMood",
          "type": "uint256"
        },
        {
          "internalType": "uint256",
          "name": "averageHabit",
          "type": "uint256"
        },
        {
          "internalType": "uint256",
          "name": "consistencyScore",
          "type": "uint256"
        }
      ],
      "stateMutability": "view",
      "type": "function"
    },
    {
      "inputs": [],
      "name": "protocolId",
      "outputs": [
        {
          "internalType": "uint256",
          "name": "",
          "type": "uint256"
        }
      ],
      "stateMutability": "pure",
      "type": "function"
    },
    {
      "inputs": [
        {
          "internalType": "address",
          "name": "user",
          "type": "address"
        },
        {
          "internalType": "uint256",
          "name": "dayIndex",
          "type": "uint256"
        }
      ],
      "name": "recordExists",
      "outputs": [
        {
          "internalType": "bool",
          "name": "exists",
          "type": "bool"
        }
      ],
      "stateMutability": "view",
      "type": "function"
    }
  ],
  "transactionHash": "0x6a43a61c0ddee6471e37f21f3b89258ff2824e4a2e8b5d50f2728f35ecdf73db",
  "args": [],
  "numDeployments": 1,
  "solcInputHash": "b447beb33ef36eece1189fa03a4023e4",
  "bytecode": "0x608060405234610194575f6060610014610198565b8281528260208201528260408201520152731364cbbf2cdf5032c47d8226a6f6fbd2afcdacac6060610044610198565b7350157cffd6bbfa2dece204a89ec419c23ef5755d815273cd3ab3bd6bcc0c0bf3e27912a92043e817b1cf69602082015273a02cda4ca3a71d7c46997716f4283aa851c28812604082015201527350157cffd6bbfa2dece204a89ec419c23ef5755d60018060a01b03195f5160206121285f395f51905f525416175f5160206121285f395f51905f525573cd3ab3bd6bcc0c0bf3e27912a92043e817b1cf6960018060a01b03195f5160206120e85f395f51905f525416175f5160206120e85f395f51905f525573a02cda4ca3a71d7c46997716f4283aa851c2881260018060a01b03195f5160206121085f395f51905f525416175f5160206121085f395f51905f5255731364cbbf2cdf5032c47d8226a6f6fbd2afcdacac60018060a01b03195f5160206120c85f395f51905f525416175f5160206120c85f395f51905f5255604051611efc90816101cc8239f35b5f80fd5b60405190608082016001600160401b038111838210176101b757604052565b634e487b7160e01b5f52604160045260245ffdfe60806040526004361015610011575f80fd5b5f3560e01c80630b6d9998146101145780630b7cf5841461010f5780632723087e1461010a578063471a1b8d146101055780634d946532146101005780635184009c146100fb5780635bc5a324146100f65780635d1f2fea146100f1578063690eee8d146100ec5780637c22321d146100e75780639e41f437146100e25780639fa0da3e146100dd578063a83583e9146100d8578063c37277d9146100d3578063d17d4fbe146100ce5763da1f12ab146100c9575f80fd5b6111a0565b611120565b610fb5565b610f4c565b610d9e565b610d2b565b610c5a565b610a8f565b610919565b6108a3565b610856565b61081e565b6105ff565b61055c565b61037a565b6101c5565b600435906001600160a01b038216820361012f57565b5f80fd5b90602080835192838152019201905f5b8181106101505750505090565b8251845260209384019390920191600101610143565b9161017c61018a92606085526060850190610133565b908382036020850152610133565b906040818303910152602080835192838152019201905f5b8181106101af5750505090565b82518452602093840193909201916001016101a2565b3461012f57606036600319011261012f576101de610119565b602435906044356101f08382116111bc565b610206601e6101ff858461121b565b111561122d565b610221826001600160a01b03165f52600160205260405f2090565b5490818111156103725750905b610238838361121b565b92610242846112dc565b9361024c816112dc565b92610256826112dc565b915f935b86811080610369575b1561034c576102a060036102988361028b876001600160a01b03165f525f60205260405f2090565b905f5260205260405f2090565b015460ff1690565b6102b3575b6102ae9061130e565b61025a565b936103446102ae916102d98761028b876001600160a01b03165f525f60205260405f2090565b546102e4828c611330565b5260016103058861028b886001600160a01b03165f525f60205260405f2090565b0154610311828a611330565b5260026103328861028b886001600160a01b03165f525f60205260405f2090565b015461033e8288611330565b5261130e565b9490506102a5565b8488528486528484526040518061036586898c84610166565b0390f35b50818510610263565b90509061022e565b3461012f57604036600319011261012f57610393610119565b602435906103b2816001600160a01b03165f52600160205260405f2090565b54916103bf831515611349565b601e8111156105265750601e5b8083111561051e576103de908361121b565b905b6103e8611968565b916103f1611968565b935f915b818110610484575050610409901515611394565b61041282611af8565b5061041d8183611e12565b61042683611af8565b506104318184611e12565b7fedb8f50694b2f3ad60154a3fa1ebe451a7d22b3c21b0790ec706e11697e2fa146001600160a01b036040519216918061047081906004602083019252565b0390a2604080519182526020820192909252f35b6104a760036102988361028b886001600160a01b03165f525f60205260405f2090565b6104b4575b6001016103f5565b9194936105166105106104e86001936104e18761028b8a6001600160a01b03165f525f60205260405f2090565b5490611a13565b96836105088761028b8a6001600160a01b03165f525f60205260405f2090565b015490611a13565b9661130e565b9290506104ac565b505f906103e0565b6103cc565b9181601f8401121561012f5782359167ffffffffffffffff831161012f576020808501948460051b01011161012f57565b3461012f57608036600319011261012f5760043567ffffffffffffffff811161012f5761058d90369060040161052b565b60243567ffffffffffffffff811161012f576105ad90369060040161052b565b60449391933567ffffffffffffffff811161012f576105d090369060040161052b565b916064359567ffffffffffffffff871161012f576105f56105fd97369060040161052b565b969095611621565b005b3461012f57604036600319011261012f57610618610119565b602435610636826001600160a01b03165f52600160205260405f2090565b5490610643821515611349565b610650600283101561179d565b600a8111156108195750600a5b808211156108115761066f908261121b565b915b5f61067a611968565b92610683611968565b9161068c611968565b915f5f6106ab6106a561069f8b8661121b565b60011c90565b8a611614565b985b8381106107355788886106cd89896106c860028b101561182c565b611c58565b906106d782611af8565b506106e28183611e12565b6106eb83611af8565b506106f68184611e12565b7fedb8f50694b2f3ad60154a3fa1ebe451a7d22b3c21b0790ec706e11697e2fa146001600160a01b036040519216918061047081906005602083019252565b61075860036102988361028b8c6001600160a01b03165f525f60205260405f2090565b610765575b6001016106ad565b9391959761078d9060016105088761028b8c6001600160a01b03165f525f60205260405f2090565b97878a8610156107d6576107c86107c2600193846105088a61028b6107ce976001600160a01b03165f525f60205260405f2090565b9861130e565b9361130e565b94905061075d565b61080b61080560019399959498846105088a61028b6107ce976001600160a01b03165f525f60205260405f2090565b9761130e565b9261130e565b505f91610671565b61065d565b3461012f57602036600319011261012f576001600160a01b0361083f610119565b165f526001602052602060405f2054604051908152f35b3461012f57604036600319011261012f5761086f610119565b6001600160a01b0360243591165f525f60205260405f20905f52602052602060ff600360405f200154166040519015158152f35b3461012f57604036600319011261012f576108bc610119565b6001600160a01b036024359116805f525f60205260405f20825f526020526108ed60ff600360405f20015416611877565b5f525f60205260405f20905f52602052610365600260405f200154604051918291829190602083019252565b3461012f57604036600319011261012f57610932610119565b602435610950826001600160a01b03165f52600160205260405f2090565b549061095d821515611349565b600a811115610a8a5750600a5b80821115610a825761097c908261121b565b915b610986611968565b9161098f611968565b935b818110610a015750506109a382611af8565b506109ae8183611e12565b6109b783611af8565b506109c28184611e12565b7fedb8f50694b2f3ad60154a3fa1ebe451a7d22b3c21b0790ec706e11697e2fa146001600160a01b036040519216918061047081906001602083019252565b610a2460036102988361028b876001600160a01b03165f525f60205260405f2090565b610a31575b600101610991565b9392610a7a610a5a6001926104e18861028b886001600160a01b03165f525f60205260405f2090565b94826105088861028b886001600160a01b03165f525f60205260405f2090565b949050610a29565b505f9161097e565b61096a565b3461012f57604036600319011261012f57610aa8610119565b602435610ac6826001600160a01b03165f52600160205260405f2090565b5490610ad3821515611349565b600a811115610c555750600a5b80821115610c4d57610af2908261121b565b915b610afc611968565b91610b05611968565b935b818110610b77575050610b1982611af8565b50610b248183611e12565b610b2d83611af8565b50610b388184611e12565b7fedb8f50694b2f3ad60154a3fa1ebe451a7d22b3c21b0790ec706e11697e2fa146001600160a01b036040519216918061047081906002602083019252565b610b9a60036102988361028b876001600160a01b03165f525f60205260405f2090565b610ba7575b600101610b07565b9392610c45610c01600192610bfb610bd38961028b896001600160a01b03165f525f60205260405f2090565b5485610bf38b61028b8b6001600160a01b03165f525f60205260405f2090565b015490611d28565b90611a13565b94610bfb83610c248961028b896001600160a01b03165f525f60205260405f2090565b015484610bf38a61028b8a6001600160a01b03165f525f60205260405f2090565b949050610b9f565b505f91610af4565b610ae0565b3461012f57602036600319011261012f57610c73610119565b6001600160a01b03811690815f52600160205260405f2054610c96811515611349565b5f19915f935f5b838110610cb4576040805186815260208101889052f35b815f525f602052610cd560036102988360405f20905f5260205260405f2090565b610ce2575b600101610c9d565b6002610d028261028b866001600160a01b03165f525f60205260405f2090565b0154858110610d23575b868111610d1a575b50610cda565b95506001610d14565b945084610d0c565b3461012f57604036600319011261012f57610d44610119565b6001600160a01b036024359116805f525f60205260405f20825f52602052610d7560ff600360405f20015416611877565b5f525f60205260405f20905f5260205261036560405f2054604051918291829190602083019252565b3461012f57604036600319011261012f57610db7610119565b602435610dd5826001600160a01b03165f52600160205260405f2090565b5490610de2821515611349565b610def600283101561179d565b600a811115610f475750600a5b80821115610f3657610e119060011c8261121b565b915b610e1b611968565b91610e24611968565b935f905f905f5b848110610e9c57878787610e3e82611af8565b50610e498183611e12565b610e5283611af8565b50610e5d8184611e12565b7fedb8f50694b2f3ad60154a3fa1ebe451a7d22b3c21b0790ec706e11697e2fa146001600160a01b036040519216918061047081906003602083019252565b610ebf60036102988361028b8a6001600160a01b03165f525f60205260405f2090565b610ecc575b600101610e2b565b9295818410610f0557610efc6108056001926104e18761028b8b6001600160a01b03165f525f60205260405f2090565b935b9050610ec4565b95929196610f306107c26001926104e18661028b8b6001600160a01b03165f525f60205260405f2090565b92610efe565b50610f418160011c90565b91610e13565b610dfc565b3461012f57602036600319011261012f576080610f6f610f6a610119565b6118d8565b91604051938452602084015260408301526060820152f35b9181601f8401121561012f5782359167ffffffffffffffff831161012f576020838186019501011161012f57565b3461012f57608036600319011261012f5760243560043560443567ffffffffffffffff811161012f57610fec903690600401610f87565b9190926064359167ffffffffffffffff831161012f576110d19361103161102b9261102b611021611039973690600401610f87565b99909436916115ce565b90611b02565b9536916115ce565b335f5260016020526110c060405f2054936110c06110556112b3565b8281528460208201524260408201526110716060820160019052565b61108f8761028b336001600160a01b03165f525f60205260405f2090565b600360609183518155602084015160018201556040840151600282015501910151151560ff80198354169116179055565b6110c981611af8565b503390611e12565b335f9081526001602052604090206110e9815461130e565b90556040805191825242602083015233917f519b01a3923a8585aa899199af916508ff85aea7adbb180f661f55cb5f0dd31b9190a2005b3461012f57604036600319011261012f57611139610119565b6001600160a01b036024359116805f525f60205260405f20825f5260205261116a60ff600360405f20015416611877565b5f525f60205260405f20905f52602052610365600160405f200154604051918291829190602083019252565b5f91031261012f57565b3461012f575f36600319011261012f5760206040516127118152f35b156111c357565b606460405162461bcd60e51b815260206004820152600d60248201527f496e76616c69642072616e6765000000000000000000000000000000000000006044820152fd5b634e487b7160e01b5f52601160045260245ffd5b9190820391821161122857565b611207565b1561123457565b606460405162461bcd60e51b815260206004820152601d60248201527f52616e676520746f6f206c6172676520286d61782033302064617973290000006044820152fd5b634e487b7160e01b5f52604160045260245ffd5b90601f8019910116810190811067ffffffffffffffff8211176112ae57604052565b611278565b604051906112c260808361128c565b565b67ffffffffffffffff81116112ae5760051b60200190565b906112e6826112c4565b6112f3604051918261128c565b8281528092611304601f19916112c4565b0190602036910137565b5f1981146112285760010190565b634e487b7160e01b5f52603260045260245ffd5b80518210156113445760209160051b010190565b61131c565b1561135057565b606460405162461bcd60e51b815260206004820152601460248201527f4e6f207265636f72647320617661696c61626c650000000000000000000000006044820152fd5b1561139b57565b606460405162461bcd60e51b815260206004820152601660248201527f4e6f2076616c6964207265636f72647320666f756e64000000000000000000006044820152fd5b156113e657565b606460405162461bcd60e51b815260206004820152601860248201527f4172726179206c656e67746873206d757374206d6174636800000000000000006044820152fd5b1561143157565b606460405162461bcd60e51b815260206004820152601b60248201527f4d6f6f642070726f6f6673206c656e677468206d69736d6174636800000000006044820152fd5b1561147c57565b606460405162461bcd60e51b815260206004820152601c60248201527f48616269742070726f6f6673206c656e677468206d69736d61746368000000006044820152fd5b156114c757565b606460405162461bcd60e51b815260206004820152601660248201527f43616e6e6f742061646420656d707479206261746368000000000000000000006044820152fd5b1561151257565b608460405162461bcd60e51b815260206004820152603260248201527f42617463682073697a65206c696d6974656420746f2037207265636f7264732060448201527f666f722067617320656666696369656e637900000000000000000000000000006064820152fd5b91908110156113445760051b0190565b91908110156113445760051b81013590601e198136030182121561012f57019081359167ffffffffffffffff831161012f57602001823603811361012f579190565b92919267ffffffffffffffff82116112ae57604051916115f8601f8201601f19166020018461128c565b82948184528183011161012f578281602093845f960137010152565b9190820180921161122857565b949397969197959290956116368288146113df565b61164185881461142a565b61164c838314611475565b6116578715156114c0565b611664600788111561150b565b335f90815260016020526040902054945f5b8881106116b25750505050505050509091506116ae6116a6336001600160a01b03165f52600160205260405f2090565b918254611614565b9055565b8061175a8c6110c06116fd8a61102b8f8f988d6116e9828f8f8f9060019f6116f0856116f7946116e9826116f09d61102b9661157c565b359461158c565b36916115ce565b9a61157c565b916110c08c61108f61170d6112b3565b9184835286602084015242604084015261172a6060840160019052565b61174e89611748336001600160a01b03165f525f60205260405f2090565b92611614565b5f5260205260405f2090565b6117648189611614565b6040805191825242602083015233917f519b01a3923a8585aa899199af916508ff85aea7adbb180f661f55cb5f0dd31b9190a201611676565b156117a457565b608460405162461bcd60e51b815260206004820152602a60248201527f4e656564206174206c656173742032207265636f72647320666f72207472656e60448201527f6420616e616c79736973000000000000000000000000000000000000000000006064820152fd5b8115611818570490565b634e487b7160e01b5f52601260045260245ffd5b1561183357565b606460405162461bcd60e51b815260206004820152601d60248201527f4e656564206174206c6561737420322076616c6964207265636f7264730000006044820152fd5b1561187e57565b606460405162461bcd60e51b815260206004820152601560248201527f5265636f726420646f6573206e6f7420657869737400000000000000000000006044820152fd5b9060648202918083046064149015171561122857565b6001600160a01b031690815f52600160205260405f2054918290831561195b575f905f5b83811061191e57505090611912611917926118c2565b61180e565b5f915f9190565b815f525f60205260405f20815f5260205260ff600360405f20015416611947575b6001016118fc565b9161195360019161130e565b92905061193f565b505f925082918291508190565b5f60206001600160a01b037f9e7b61f58c47dc699ac88507c4f5bb9f121c03808c5676a8078fe583e464970154166044604051809481937f9cd07acb000000000000000000000000000000000000000000000000000000008352816004840152600460248401525af1908115611a0e575f916119e2575090565b611a04915060203d602011611a07575b6119fc818361128c565b810190611df8565b90565b503d6119f2565b611e07565b5f602091611ac5938115611ae8575b8015611ada575b826001600160a01b0380807f9e7b61f58c47dc699ac88507c4f5bb9f121c03808c5676a8078fe583e46497015416161692604051968795869485937f117b2f38000000000000000000000000000000000000000000000000000000008552600485019160409194937fff000000000000000000000000000000000000000000000000000000000000009160608501968552602085015216910152565b03925af1908115611a0e575f916119e2575090565b50611ae3611968565b611a29565b9050611af2611968565b90611a22565b611a043082611e12565b611b8591602091611b4c611b40611b407f9e7b61f58c47dc699ac88507c4f5bb9f121c03808c5676a8078fe583e4649701546001600160a01b031690565b6001600160a01b031690565b905f6040518096819582947f196d0b9b000000000000000000000000000000000000000000000000000000008452339060048501611ea6565b03925af1908115611a0e575f91611c39575b50611bcf611b40611b407f9e7b61f58c47dc699ac88507c4f5bb9f121c03808c5676a8078fe583e4649700546001600160a01b031690565b803b1561012f576040517f3e395cec00000000000000000000000000000000000000000000000000000000815260048101839052336024820152905f908290604490829084905af18015611a0e57611c25575090565b80611c335f611a049361128c565b80611196565b611c52915060203d602011611a07576119fc818361128c565b5f611b97565b5f602091611ac5938115611d18575b8015611d0a575b826001600160a01b0380807f9e7b61f58c47dc699ac88507c4f5bb9f121c03808c5676a8078fe583e46497015416161692604051968795869485937f182b6d98000000000000000000000000000000000000000000000000000000008552600485019160409194937fff000000000000000000000000000000000000000000000000000000000000009160608501968552602085015216910152565b50611d13611968565b611c6e565b9050611d22611968565b90611c67565b5f602091611ac5938115611de8575b8015611dda575b826001600160a01b0380807f9e7b61f58c47dc699ac88507c4f5bb9f121c03808c5676a8078fe583e46497015416161692604051968795869485937f57f0a568000000000000000000000000000000000000000000000000000000008552600485019160409194937fff000000000000000000000000000000000000000000000000000000000000009160608501968552602085015216910152565b50611de3611968565b611d3e565b9050611df2611968565b90611d37565b9081602091031261012f575190565b6040513d5f823e3d90fd5b6001600160a01b037f9e7b61f58c47dc699ac88507c4f5bb9f121c03808c5676a8078fe583e4649700541691823b1561012f576040517fb9496b6200000000000000000000000000000000000000000000000000000000815260048101929092526001600160a01b03166024820152905f908290604490829084905af18015611a0e57611e9c5750565b5f6112c29161128c565b9392602060a0916001600160a01b03600495606095895216828801526080604088015280519182918260808a0152018388015e5f828288010152601f801991011685010193015256fea164736f6c634300081b000a9e7b61f58c47dc699ac88507c4f5bb9f121c03808c5676a8078fe583e46497039e7b61f58c47dc699ac88507c4f5bb9f121c03808c5676a8078fe583e46497019e7b61f58c47dc699ac88507c4f5bb9f121c03808c5676a8078fe583e46497029e7b61f58c47dc699ac88507c4f5bb9f121c03808c5676a8078fe583e4649700",
  "devdoc": {
    "details": "Uses FHE to store encrypted data and perform encrypted analysis on-chain",
    "kind": "dev",
    "methods": {
      "addDailyRecord(bytes32,bytes32,bytes,bytes)": {
        "params": {
          "encryptedHabitCompletion": "The encrypted habit completion rate (0-100)",
          "encryptedMood": "The encrypted mood value (1-5)",
          "habitProof": "The FHE proof for habit completion encryption",
          "moodProof": "The FHE proof for mood encryption"
        }
      },
      "batchAddDailyRecords(bytes32[],bytes32[],bytes[],bytes[])": {
        "params": {
          "encryptedHabits": "Array of encrypted habit completion rates (0-100)",
          "encryptedMoods": "Array of encrypted mood values (1-5)",
          "habitProofs": "Array of FHE proofs for habit completion encryption",
          "moodProofs": "Array of FHE proofs for mood encryption"
        }
      },
      "getAnalysisTotals(address,uint256)": {
        "details": "This allows encrypted analysis by returning totals that can be decrypted and analyzed client-sideNote: Not view because FHE operations modify state (permissions)",
        "params": {
          "recordCount": "Number of recent records to analyze (up to 10 for MVP)",
          "user": "The user address"
        },
        "returns": {
          "encryptedTotalHabits": "The encrypted sum of habit completions",
          "encryptedTotalMood": "The encrypted sum of moods"
        }
      },
      "getDailyAverages(address,uint256)": {
        "params": {
          "numDays": "The number of recent days to average (max 30)",
          "user": "The user address"
        },
        "returns": {
          "encryptedAverageHabits": "Average habit completion",
          "encryptedAverageMood": "Average mood value"
        }
      },
      "getDayCount(address)": {
        "params": {
          "user": "The user address"
        },
        "returns": {
          "count": "The number of days recorded"
        }
      },
      "getEncryptedHabitCompletion(address,uint256)": {
        "params": {
          "dayIndex": "The day index (0-based)",
          "user": "The user address"
        },
        "returns": {
          "encryptedHabitCompletion": "The encrypted habit completion value"
        }
      },
      "getEncryptedMood(address,uint256)": {
        "params": {
          "dayIndex": "The day index (0-based)",
          "user": "The user address"
        },
        "returns": {
          "encryptedMood": "The encrypted mood value"
        }
      },
      "getHabitCompletionTrend(address,uint256)": {
        "details": "Client-side can decrypt and interpret trend direction",
        "params": {
          "recordCount": "Number of recent records to analyze (up to 10 for MVP)",
          "user": "The user address"
        },
        "returns": {
          "encryptedAverageCompletion": "Average habit completion rate",
          "encryptedTrendSlope": "Slope of habit completion trend (positive = improving)"
        }
      },
      "getMoodHabitCorrelation(address,uint256)": {
        "details": "Client-side can decrypt and calculate correlation coefficient using these valuesNote: Not view because FHE operations modify state (permissions)",
        "params": {
          "recordCount": "Number of recent records to analyze (up to 10 for MVP)",
          "user": "The user address"
        },
        "returns": {
          "encryptedHabitSquared": "Sum of (habitCompletion * habitCompletion) for correlation analysis",
          "encryptedMoodHabitProduct": "Sum of (mood * habitCompletion) for correlation analysis"
        }
      },
      "getRecordTimestamp(address,uint256)": {
        "params": {
          "dayIndex": "The day index (0-based)",
          "user": "The user address"
        },
        "returns": {
          "timestamp": "The timestamp of the record"
        }
      },
      "getRecordTimestampRange(address)": {
        "params": {
          "user": "The user address"
        },
        "returns": {
          "earliestTimestamp": "The timestamp of the earliest record",
          "latestTimestamp": "The timestamp of the latest record"
        }
      },
      "getRecordsInRange(address,uint256,uint256)": {
        "params": {
          "endDay": "Ending day index (exclusive)",
          "startDay": "Starting day index (inclusive)",
          "user": "The user address"
        },
        "returns": {
          "encryptedHabits": "Array of encrypted habit completion values",
          "encryptedMoods": "Array of encrypted mood values",
          "timestamps": "Array of record timestamps"
        }
      },
      "getStressReductionTrend(address,uint256)": {
        "details": "Client-side can compare these to see if mood is improving (stress reducing)Note: Not view because FHE operations modify state (permissions)",
        "params": {
          "recordCount": "Number of recent records to analyze (up to 10 for MVP)",
          "user": "The user address"
        },
        "returns": {
          "encryptedEarlierMoodAverage": "Average mood in earlier records",
          "encryptedRecentMoodAverage": "Average mood in recent records"
        }
      },
      "getUserStatistics(address)": {
        "params": {
          "user": "The user address"
        },
        "returns": {
          "averageHabit": "Average habit completion (0 if no records)",
          "averageMood": "Average mood score (0 if no records)",
          "consistencyScore": "Consistency score based on regular logging (0-100)",
          "totalRecords": "Total number of records"
        }
      },
      "recordExists(address,uint256)": {
        "params": {
          "dayIndex": "The day index (0-based)",
          "user": "The user address"
        },
        "returns": {
          "exists": "Whether the record exists"
        }
      }
    },
    "title": "EncryptedHabitMoodTracker - Private Habit and Mood Tracking",
    "version": 1
  },
  "userdoc": {
    "kind": "user",
    "methods": {
      "addDailyRecord(bytes32,bytes32,bytes,bytes)": {
        "notice": "Add a daily mood and habit completion record"
      },
      "batchAddDailyRecords(bytes32[],bytes32[],bytes[],bytes[])": {
        "notice": "Batch add multiple daily records at once"
      },
      "getAnalysisTotals(address,uint256)": {
        "notice": "Calculate total mood and habit completion for analysis"
      },
      "getDailyAverages(address,uint256)": {
        "notice": "Get average mood and habit completion over a period"
      },
      "getDayCount(address)": {
        "notice": "Get the total number of days recorded for a user"
      },
      "getEncryptedHabitCompletion(address,uint256)": {
        "notice": "Get the encrypted habit completion for a specific day"
      },
      "getEncryptedMood(address,uint256)": {
        "notice": "Get the encrypted mood for a specific day"
      },
      "getHabitCompletionTrend(address,uint256)": {
        "notice": "Calculate habit completion trend over time"
      },
      "getMoodHabitCorrelation(address,uint256)": {
        "notice": "Calculate correlation between mood improvement and habit completion"
      },
      "getRecordTimestamp(address,uint256)": {
        "notice": "Get timestamp for a specific day record"
      },
      "getRecordTimestampRange(address)": {
        "notice": "Get timestamp range for user's records"
      },
      "getRecordsInRange(address,uint256,uint256)": {
        "notice": "Get records within a date range"
      },
      "getStressReductionTrend(address,uint256)": {
        "notice": "Calculate stress reduction trend (lower mood = higher stress, so we track if mood is improving)"
      },
      "getUserStatistics(address)": {
        "notice": "Get user statistics summary"
      },
      "recordExists(address,uint256)": {
        "notice": "Check if a record exists for a specific day"
      }
    },
    "notice": "Allows users to record encrypted mood (1-5) and habit completion rate (0-100) privately",
    "version": 1
  },
  "storageLayout": {
    "storage": [
      {
        "astId": 39054,
        "contract": "contracts/EncryptedHabitMoodTracker.sol:EncryptedHabitMoodTracker",
        "label": "_userRecords",
        "offset": 0,
        "slot": "0",
        "type": "t_mapping(t_address,t_mapping(t_uint256,t_struct(DailyRecord)39047_storage))"
      },
      {
        "astId": 39058,
        "contract": "contracts/EncryptedHabitMoodTracker.sol:EncryptedHabitMoodTracker",
        "label": "_userDayCount",
        "offset": 0,
        "slot": "1",
        "type": "t_mapping(t_address,t_uint256)"
      }
    ],
    "types": {
      "t_address": {
        "encoding": "inplace",
        "label": "address",
        "numberOfBytes": "20"
      },
      "t_bool": {
        "encoding": "inplace",
        "label": "bool",
        "numberOfBytes": "1"
      },
      "t_mapping(t_address,t_mapping(t_uint256,t_struct(DailyRecord)39047_storage))": {
        "encoding": "mapping",
        "key": "t_address",
        "label": "mapping(address => mapping(uint256 => struct EncryptedHabitMoodTracker.DailyRecord))",
        "numberOfBytes": "32",
        "value": "t_mapping(t_uint256,t_struct(DailyRecord)39047_storage)"
      },
      "t_mapping(t_address,t_uint256)": {
        "encoding": "mapping",
        "key": "t_address",
        "label": "mapping(address => uint256)",
        "numberOfBytes": "32",
        "value": "t_uint256"
      },
      "t_mapping(t_uint256,t_struct(DailyRecord)39047_storage)": {
        "encoding": "mapping",
        "key": "t_uint256",
        "label": "mapping(uint256 => struct EncryptedHabitMoodTracker.DailyRecord)",
        "numberOfBytes": "32",
        "value": "t_struct(DailyRecord)39047_storage"
      },
      "t_struct(DailyRecord)39047_storage": {
        "encoding": "inplace",
        "label": "struct EncryptedHabitMoodTracker.DailyRecord",
        "members": [
          {
            "astId": 39039,
            "contract": "contracts/EncryptedHabitMoodTracker.sol:EncryptedHabitMoodTracker",
            "label": "mood",
            "offset": 0,
            "slot": "0",
            "type": "t_userDefinedValueType(euint32)40677"
          },
          {
            "astId": 39042,
            "contract": "contracts/EncryptedHabitMoodTracker.sol:EncryptedHabitMoodTracker",
            "label": "habitCompletion",
            "offset": 0,
            "slot": "1",
            "type": "t_userDefinedValueType(euint32)40677"
          },
          {
            "astId": 39044,
            "contract": "contracts/EncryptedHabitMoodTracker.sol:EncryptedHabitMoodTracker",
            "label": "timestamp",
            "offset": 0,
            "slot": "2",
            "type": "t_uint256"
          },
          {
            "astId": 39046,
            "contract": "contracts/EncryptedHabitMoodTracker.sol:EncryptedHabitMoodTracker",
            "label": "initialized",
            "offset": 0,
            "slot": "3",
            "type": "t_bool"
          }
        ],
        "numberOfBytes": "128"
      },
      "t_uint256": {
        "encoding": "inplace",
        "label": "uint256",
        "numberOfBytes": "32"
      },
      "t_userDefinedValueType(euint32)40677": {
        "encoding": "inplace",
        "label": "euint32",
        "numberOfBytes": "32"
      }
    }
  }
}